:10000000C2C00000DBC00000D9C00000D7C00000A3
:10001000D5C00000D3C00000D1C00000CFC0000098
:10002000CDC00000CBC000009DC40000C7C00000D0
:10003000C5C00000C3C00000C1C00000BFC00000B8
:10004000BDC00000BBC00000B9C00000B7C00000C8
:10005000B5C00000B3C00000B1C00000AFC00000D8
:10006000ADC00000ABC00000A9C00000A7C00000E8
:10007000A5C00000A3C00000A1C000009FC00000F8
:100080009DC000009BC0000099C0000097C0000008
:1000900095C0000093C0000091C000008FC0000018
:1000A0008DC000008BC0000089C0000024035000F8
:1000B0004F004B004B0045004E00200043004F0016
:1000C0004E00540052004F004C004C0045005200BE
:1000D00000001C0348004F0052004900200043006C
:1000E0004F002E002C004C00540044002E00000055
:1000F000040309040902290001010080FA0904002F
:10010000000203000000092111010001225600072E
:1001100005020340000507058103400005120100A8
:1001200002000000400D0F920000010102000105D5
:10013000010905A10115002501350045017501954D
:1001400010050919012910810205012507463B0107
:100150007504950165140939814265009501810195
:1001600026FF0046FF0009300931093209357508BC
:10017000950481020600FF0920950181020A2126CB
:1001800095089102C00011241FBECFEFDAE0DEBF58
:10019000CDBF11E0A0E0B1E0E0EEFDE002C00590CF
:1001A0000D92AC31B107D9F721E0ACE1B1E001C06B
:1001B0001D92A034B207E1F751D110C621CF84B708
:1001C000877F84BF0FB6F894A895809160008861FE
:1001D00080936000109260000FBE90E080E80FB640
:1001E000F89480936100909361000FBE9EC30895C0
:1001F000089542E360EC82E0D2D242E361EC81E018
:10020000CEC20895DC0198E0FD01892F11928A95F4
:10021000E9F780E813968C93139714968C931497B0
:1002200015968C93159716968C93169712969C9309
:1002300012978091280190912901181619066CF4E3
:1002400088E0EBE2F1E001900D928A95E1F7809170
:100250002801909129010197B4C080912A01823030
:10026000C1F068F4882399F0813009F0A0C01092A1
:1002700021011092200111961C921E9208C0843018
:1002800009F492C040F0853009F49FC090C082E02C
:100290008CC083E08AC08091200190912101FC01F3
:1002A000EE0FFF1F8E0F9F1FFC01E050FF4F80815C
:1002B000863069F160F4813029F1E0F08230F1F0AC
:1002C0008330A1F58FEF13968C9313972FC089304D
:1002D00031F138F4873051F58D919C9111978260FE
:1002E00022C08A30C9F08C3009F58D919C9111970C
:1002F000806319C014961C92149718C013961C9210
:10030000139714C08FEF14968C9314970FC08D9190
:100310009C911197846007C014961C9214978D913C
:100320009C911197806211969C938E9320911E014F
:1003300030911F012F5F3F4F30931F0120931E010B
:100340008091200190912101FC01EE0FFF1FE80F29
:10035000F91FE050FF4F418152814217530748F483
:100360000196909321018093200110921F01109219
:100370001E0180912001909121010997C4F087E02E
:1003800090E0909321018093200110921F01109220
:100390001E0182E080932A0180E813968C931397C4
:1003A00014968C93149703C085E080932A0188E00B
:1003B000FD01ABE2B1E001900D928A95E1F782E098
:1003C00090E090932901809328010895CF93DF93C3
:1003D000CDB7DEB728970FB6F894DEBF0FBECDBFFE
:1003E00080913701843089F582E08093E900809123
:1003F000E80082FF12C08091E80085FF09C040E05C
:1004000050E067E070E0CE010196BAD08111F7CFDD
:100410008091E8008B778093E80081E08093E90089
:100420008091E80080FF11C0CE010196EBDE40E034
:1004300050E068E070E0CE01019658D08111F7CF0E
:100440008091E8008E778093E80028960FB6F894A4
:10045000DEBF0FBECDBFDF91CF910895B0DE78949F
:10046000B5DFA2D4FDCF292F332723303105E1F0AA
:100470005CF42130310599F02230310579F589E2BB
:1004800090E024EF30E02EC02132310511F122320C
:10049000310521F586E590E02FE231E023C082E1CD
:1004A00090E02DE131E01EC099278130910541F0A7
:1004B0008230910541F0892B89F4E0EFF0E005C02E
:1004C000E2EDF0E002C0ECEAF0E0849190E09F0100
:1004D00009C089E090E026E031E004C080E090E0CF
:1004E00020E030E0FA01318320830895CF92DF923B
:1004F000EF92FF920F931F93CF93DF93EC018B0149
:100500007A01A1D1811133C0E114F10439F0F7016E
:1005100080819181081B190BC80FD91FC12CD12CC8
:100520000115110519F18091E80085FD16C0809133
:10053000E8008E778093E80037D4E114F10449F0A5
:10054000F70180819181C80ED91ED182C08285E0D9
:100550000EC079D1882321F30AC089918093F100DC
:1005600001501109FFEFCF1ADF0ADACF80E0DF91E7
:10057000CF911F910F91FF90EF90DF90CF90089552
:10058000CF92DF92EF92FF920F931F93CF93DF935F
:10059000EC018B017A0157D1811133C0E114F104D0
:1005A00039F0F70180819181081B190BC80FD91F01
:1005B000C12CD12C0115110519F18091E80085FDA0
:1005C00016C08091E8008B778093E800EDD3E114AA
:1005D000F10449F0F70180819181C80ED91ED182C2
:1005E000C08285E00EC02FD1882321F30AC08091FC
:1005F000F100899301501109FFEFCF1ADF0ADACF1A
:1006000080E0DF91CF911F910F91FF90EF90DF90ED
:10061000CF90089520913E0130913F012617370772
:1006200048F06115710539F42091E8002E77209388
:10063000E80001C0B90140E061157105A9F1209100
:100640003701222309F443C0253009F442C0209128
:10065000E80023FD40C02091E80022FD32C0209137
:10066000E80020FFE9CF4091F3002091F20030E054
:10067000342BFC01CF016115710559F0203431058F
:1006800040F481918093F100615071092F5F3F4FD9
:10069000F1CF41E02034310509F040E02091E8003D
:1006A0002E772093E800C8CF4111C9CF0AC08091AE
:1006B0003701882361F0853061F08091E80083FD87
:1006C0000AC08091E80082FFF2CF80E0089582E0C6
:1006D000089583E0089581E0089520913E013091CE
:1006E0003F012617370748F06115710539F420914D
:1006F000E8002E772093E80001C0B901FC0120E05A
:100700006115710599F180913701882309F441C081
:10071000853009F440C08091E80083FD3EC080919F
:10072000E80082FD30C08091E80080FFE9CF209191
:10073000F3008091F20090E0922B6115710559F061
:100740008034910540F424912093F100319661505A
:1007500071090196F2CF21E08034910509F020E083
:100760008091E8008E778093E800CACF2111CBCF2B
:100770000AC080913701882361F0853061F0809153
:10078000E80083FD0AC08091E80082FFF2CF80E09C
:10079000089582E0089583E0089581E00895982FF8
:1007A000973058F59093E900981739F07091EC0064
:1007B0002091ED005091F00003C0242F762F50E0DF
:1007C00021FF19C03091EB003E7F3093EB00309158
:1007D000ED003D7F3093ED003091EB0031603093C0
:1007E000EB007093EC002093ED005093F00020910B
:1007F000EE0027FF07C09F5FD3CF8F708093E90083
:1008000081E0089580E008958091380187FF11C04C
:100810008091E80082FD05C0809137018111F8CFF9
:1008200011C08091E8008B770BC08091370188233D
:1008300049F08091E80080FFF8CF8091E8008E7742
:100840008093E80008952091E4003091E50095E65A
:100850004091EC00842F817040FF22C08091E8001D
:1008600080FD1CC080913701882391F0853091F084
:100870008091EB0085FD10C04091E4005091E500AF
:100880004217530729F39A01915011F784E0089514
:1008900082E0089583E0089581E0089580E008955E
:1008A0004091E80042FFDECF08950F931F93CF934E
:1008B000DF934BD052D0C8EDD0E088818F7788830A
:1008C00088818068888388818F7D888319BC109295
:1008D000370110923301109235011092340100EE6D
:1008E00010E0F80180818B7F80838881816088831C
:1008F00042E360E080E053DFE1EEF0E080818E7F54
:100900008083E2EEF0E08081816080838081886076
:100910008083F80180818E7F8083888180618883D5
:10092000DF91CF911F910F910895E8EDF0E0808164
:100930008F7E8083E7EDF0E080818160808384E0BA
:1009400082BF81E080933601B0CFE8EDF0E0808196
:100950008E7F80831092E20008951092DA00109248
:10096000E10008951F920F920FB60F9211242F935A
:100970003F934F935F936F937F938F939F93AF9327
:10098000BF93EF93FF938091E10082FF0AC08091B3
:10099000E20082FF06C08091E1008B7F8093E1003E
:1009A00002D28091DA0080FF1DC08091D80080FFC4
:1009B00019C08091DA008E7F8093DA008091D9008F
:1009C00080FF0CC080E189BD82E189BD09B400FED1
:1009D000FDCF81E0809337010ADC04C019BC10927E
:1009E000370106DC8091E10080FF18C08091E200B1
:1009F00080FF14C08091E2008E7F8093E20080919E
:100A0000E20080618093E2008091D8008062809350
:100A1000D80019BC85E080933701C5D18091E100F1
:100A200084FF2FC08091E20084FF2BC080E189BD4C
:100A300082E189BD09B400FEFDCF8091D8008F7D91
:100A40008093D8008091E1008F7E8093E1008091B7
:100A5000E2008F7E8093E2008091E20081608093CB
:100A6000E20080913301882311F084E007C0809177
:100A7000E30087FD02C081E001C083E0809337017D
:100A800092D18091E10083FF22C08091E20083FF38
:100A90001EC08091E100877F8093E10082E0809317
:100AA0003701109233018091E1008E7F8093E10045
:100AB0008091E2008E7F8093E2008091E20080616D
:100AC0008093E20042E360E080E069DE6CD1FF9158
:100AD000EF91BF91AF919F918F917F916F915F91B6
:100AE0004F913F912F910F900FBE0F901F9018952F
:100AF0001F93CF93DF93CDB7DEB7AA970FB6F894C5
:100B0000DEBF0FBECDBFE8E3F1E088E08E0F90912D
:100B1000F10091938E13FBCF74DB8091E80083FF8B
:100B20002AC18091380190913901953009F483C030
:100B300030F49130A9F168F0933091F11CC19830F4
:100B400009F4EEC0993009F4FAC0963009F013C1E7
:100B500094C0803821F0823809F00DC108C080911E
:100B6000340190913501992389F082600FC0809102
:100B70003C018F70873008F0FEC08093E9008091BF
:100B8000EB0085FB882780F91092E9009091E8003E
:100B9000977F9093E8008093F1001092F100CBC012
:100BA000282F2D7F09F0E7C0882319F0823061F0EB
:100BB000E2C080913A01813009F0DDC0933009F044
:100BC00080E0809335012EC080913A0181112AC0C6
:100BD00080913C018F702FEF280F263008F0CBC09A
:100BE0008093E9002091EB0020FF1CC0933021F49A
:100BF0008091EB00806214C09091EB009061909323
:100C0000EB0021E030E0A90102C0440F551F8A9596
:100C1000E2F74093EA001092EA008091EB008860CE
:100C20008093EB001092E9008091E800877F809329
:100C3000E800EADDA0C081119EC010913A011F7743
:100C40008091E3008078812B8093E3008091E8001D
:100C5000877F8093E800D8DD8091E80080FFFCCF9B
:100C60008091E30080688093E300111102C082E06C
:100C700001C083E0809337017EC08058823008F045
:100C80007AC080913A0190913B018C3D53E09507E9
:100C900071F583E08A838AE289834FB7F894DE0195
:100CA000139620E03EE051E2E32FF0E0509357002E
:100CB000E49120FF03C0E295EF703F5FEF708E2F4D
:100CC00090E0EA3010F0C79601C0C0968D939D93D6
:100CD0002F5F243149F74FBF8091E800877F8093D1
:100CE000E8006AE270E0CE01019694DC13C06091E6
:100CF0003C0170913D01AE014F5F5F4FB4DBBC0121
:100D0000892BC9F19091E800977F9093E800898141
:100D10009A81E3DC8091E8008B778093E8002BC018
:100D2000803849F58091E800877F8093E8008091C2
:100D300033018093F1008091E8008E7778CF8111A4
:100D40001AC090913A019230B0F48091E800877F08
:100D50008093E8009093330157DD80913301811136
:100D600006C08091E30087FD02C081E001C084E0FD
:100D7000809337013EDA8091E80083FF0AC08091BA
:100D8000E800877F8093E8008091EB008062809389
:100D9000EB00AA960FB6F894DEBF0FBECDBFDF9171
:100DA000CF911F9108950895CF93809137018823A3
:100DB00099F0C091E900CF709091EC00892F81707B
:100DC00090FD80E8C82B1092E9008091E80083FD37
:100DD0008FDECF70C093E900CF910895F894FFCFD4
:100DE0000BFA000C05000B96000C05000B96000793
:0C0DF00005000BFA000605000B0A0000CD
:00000001FF
